:1000000080313628053008007E1480310B1F092806
:100010000A2834282100921D0E280F281B282000B2
:10002000921D132814281B28210055088A00540803
:100030000A00803134282100911D1F2820282628FD
:100040002000911D24282528262814282100911CF1
:100050002A282B2834282000911C2F2830283428C7
:1000600093312423803134287E10090080313828D0
:10007000EF30840093308500E13086000030870047
:100080000030FF000E309331BC238031E530840016
:100090008930850020308600013087000030FF0065
:1000A00049309331BC2380319F30840089308500F2
:1000B000A0308600013087000030FF0046309331C9
:1000C000BC23803194308400883085002030860045
:1000D000023087000030FF0040309331BC23803174
:1000E000F0308400253085000030FE000230FF0033
:1000F0009331B0238031D801D901DA01DB01DC0171
:10010000DD01DE01A0308400003085004130FE00BA
:100110000030FF009331B02380312200E901EA0171
:10012000EB01EC017E1020008E31542E393020007E
:10013000C900D12A2530510603199F28A028A528D7
:1001400051089431B9248031D12ACF01D001CE0198
:10015000AE284E150130B7070030B83D370884008F
:10016000380885000008303A0319A928B72837084D
:10017000840038088500000894317E248031031CF7
:10018000C228C3285E292000CF01D0010A302000F8
:10019000A0000030A1005008A3004F08A200953134
:1001A000E125803120002108D0002008CF00370849
:1001B0008400380885000008D03EC100FF300318D5
:1001C0000030C2004108CF074208D03D0130B707D8
:1001D0000030B83D370884003808850000089431A5
:1001E0007E2480310318F528F628C6285E29CE170C
:1001F0007C29490886008701403FC700413FC8006D
:100200000230C1004108C90747084804031D0929F5
:100210000A290E29AA30C7009830C800CA01CB01AC
:1002200015290130CA070030CB3D47084A07840032
:1002300048084B3D85001200031D1F292029112964
:1002400050084B02031D26294F084A02031829298A
:100250002A292F294A08CF024B08D03B3629CF0143
:10026000D001362920309431B9248031FF3020006C
:10027000CF07FF30D03D4F0A031D4229500A031D0E
:10028000422943293229512947088400480885001A
:1002900000089431B924803101302000C7070030B4
:1002A000C83D0130CA020030CB3B4A0A031D5C291D
:1002B0004B0A031D5C295D294429D12A20003808F6
:1002C000C2003708C100B70A0319B80A4108840000
:1002D000420885000008D100003A0319E42A643A74
:1002E00003197C290D3A03197C291A3A0319F928B4
:1002F0000B3A0319F728D12ACE1B7F298029992987
:10030000490886008701403FCC00413FCD000230C4
:10031000C1004108C907CD1F8E298F29F529033057
:10032000C1004108CE04CC09CD09CC0A0319CD0A7D
:10033000F529490886008701403FCC00413FCD00A8
:100340000230C1004108C907F529D101D10A51087D
:10035000C100C201C135C20D983041078400183078
:10036000423D80388500003FC300013FC40044087F
:100370004D02031DBD2943084C020318C029C129A1
:10038000C229FE290130C1004108D10705305106BC
:10039000031DCB29CC29A729FE29D101D10A510857
:1003A000C100C201C135C20DA2304107840018301E
:1003B000423D80388500003FC300013FC40044082F
:1003C0004D02031DE52943084C020318E829E929D9
:1003D000EA29FE290130C1004108D1070430510645
:1003E000031DF329F429CF29FE294E088039003A4C
:1003F0000319A529803A0319CD29FE294F08500475
:100400000319032A042A0E2A4E0803390319092A5C
:100410000A2A0E2AFF30CF07FF30D03D5008803A1D
:10042000803C031D152A4F0851020318182A192A67
:10043000222A20005108C100C2014108CF0242080F
:10044000D03B252A2000CF01D0014E1D282A292A81
:100450004A2A4E08033903192E2A2F2A332A2D300F
:100460009431B924803120004F0850040319392AEF
:100470003A2A692A30309431B9248031FF30200083
:10048000CF07FF30D03D4F085004031D482A492AAA
:100490003A2A692A4F08500403194F2A502A5F2A22
:1004A00020309431B9248031FF302000CF07FF3055
:1004B000D03D4F085004031D5E2A5F2A502A4E0883
:1004C00003390319642A652A692A2D309431B92425
:1004D000803120005108C600C72A0A30A800003029
:1004E000A9004608C100C201C135C20D98304107BC
:1004F00084001830423D80388500003FA000013F55
:10050000A1004D08A3004C08A200883119208031B9
:1005100020002108AB002008AA00973193278031E2
:1005200020002808303ED100C32A4608C100C2017D
:10053000C135C20DA230410784001830423D8038D9
:100540008500003FA000013FA1004D08A3004C081A
:10055000A200883119208031200020080F39C50001
:1005600045085B3E840098300318013E8500000872
:10057000D100C32A4E088039003A03196D2A803A07
:100580000319952AC32A51089431B9248031FF30C8
:100590002000C1004108C607460A031DD02AD12AFF
:1005A000BA2A20003808C2003708C100B70A031968
:1005B000B80A41088400420885000008D1005108AB
:1005C000031DE32AE42A9A2808000034003400348A
:1005D000003400340034003400344F34003400342C
:1005E0000034003407340034073400340034143449
:1005F0007F3414347F341434003424342A347F3468
:100600002A3412340034233413340834643462340A
:1006100000343634493455342234503400340034F4
:100620000534033400340034003400341C342234E4
:100630004134003400340034413422341C3400345A
:100640000034143408343E3408341434003408348C
:1006500008343E3408340834003400345034303424
:1006600000340034003408340834083408340834C2
:1006700000340034603460340034003400342034FA
:10068000103408340434023400343E3451344934D4
:1006900045343E340034003442347F344034003436
:1006A0000034423461345134493446340034213406
:1006B000413445344B34313400341834143412345A
:1006C0007F341034003427344534453445343934CC
:1006D00000343C344A344934493430340034013431
:1006E0007134093405340334003436344934493420
:1006F00049343634003406344934493429341E34FC
:1007000000340034363436340034003400340034DD
:10071000563436340034003400340834143422346F
:100720004134003400341434143414341434143484
:100730000034003441342234143408340034023498
:1007400001345134093406340034323449347934B4
:1007500041343E3400347E341134113411347E344B
:1007600000347F34493449344934363400343E341B
:10077000413441344134223400347F3441344134F3
:1007800022341C3400347F344934493449344134F0
:1007900000347F34093409340934013400343E34E0
:1007A0004134493449347A3400347F3408340834CD
:1007B00008347F340034003441347F344134003411
:1007C00000342034403441343F34013400347F3429
:1007D000083414342234413400347F3440344034FB
:1007E0004034403400347F3402340C3402347F34DB
:1007F00000347F340434083410347F3400343E3401
:100800004134413441343E3400347F3409340934B6
:100810000934063400343E344134513421345E34DA
:1008200000347F34093419342934463400344634D2
:1008300049344934493431340034013401347F348B
:100840000134013400343F344034403440343F34C8
:1008500000341F342034403420341F3400343F34FB
:100860004034383440343F34003463341434083472
:1008700014346334003407340834703408340734D3
:100880000034613451344934453443340034003445
:100890007F344134413400340034023404340834A9
:1008A0001034203400340034413441347F34003477
:1008B000003404340234013402340434003440344B
:1008C0004034403440344034003400340134023485
:1008D00004340034003420345434543454347834E0
:1008E00000347F34483444344434383400343834A9
:1008F00044344434443420340034383444344434AC
:1009000048347F3400343834543454345434183434
:10091000003408347E3409340134023400340C3499
:100920005234523452343E3400347F340834043468
:10093000043478340034003444347D34403400349A
:1009400000342034403444343D34003400347F34A7
:1009500010342834443400340034003441347F34BB
:100960004034003400347C34043418340434783493
:1009700000347C340834043404347834003438349B
:10098000443444344434383400347C34143414341F
:1009900014340834003408341434143418347C34D7
:1009A00000347C34083404340434083400344834CB
:1009B0005434543454342034003404343F344434F4
:1009C0004034203400343C344034403420347C34CF
:1009D00000341C342034403420341C3400343C3483
:1009E0004034303440343C340034443428341034FF
:1009F0002834443400340C345034503450343C34B3
:100A000000344434643454344C34443400340130BD
:100A10002200EB070030EC3D210042084304031D97
:100A2000122D132DC12D20005D03031D182D192D2E
:100A30002F2D5C08031D1D2D1E2D2F2D5B08031D62
:100A4000222D232D2F2D5A08031D272D282D2F2D24
:100A5000C430F2000930F30094315824853120006D
:100A60005D08031D342D352D4B2D5C03031D392DE1
:100A70003A2D4B2D5B08031D3E2D3F2D4B2D5A0863
:100A8000031D432D442D4B2D6C30F2000730F30035
:100A900094315824853120005D08031D502D512DBF
:100AA000672D5C08031D552D562D672D5B03031D17
:100AB0005A2D5B2D672D5A08031D5F2D602D672D64
:100AC000C430F2000930F30094316B2485312000EA
:100AD0005D08031D6C2D6D2D832D5C08031D712D8C
:100AE000722D832D5B08031D762D772D832D5A03E0
:100AF000031D7B2D7C2D832D6C30F2000730F3001D
:100B000094316B24853120005D03031D882D892DD0
:100B1000A12D5C08031D8D2D8E2DA12D5B08031DBD
:100B2000922D932DA12D5A03031D972D982DA12DA4
:100B30000230D8000030D90001302100C20000305E
:100B4000C30020005D03031DA62DA72DE32E5C0826
:100B5000031DAB2DAC2DE32E5B03031DB02DB12D7A
:100B6000E32E5A08031DB52DB62DE32E0230D80012
:100B70000030D90002302100C2000030C300DA0189
:100B8000E32E42034304031DC62DC72D522E200021
:100B90005D03031DCC2DCD2DE32D5C08031DD12D50
:100BA000D22DE32D5B08031DD62DD72DE32D5A083A
:100BB000031DDB2DDC2DE32D0130F4000030F500AA
:100BC0008D319B25853120005D08031DE82DE92D21
:100BD000FF2D5C03031DED2DEE2DFF2D5B08031D86
:100BE000F22DF32DFF2D5A08031DF72DF82DFF2DA3
:100BF0000230F4000030F5008D319B258531200056
:100C00005D08031D042E052E1B2E5C08031D092EF6
:100C10000A2E1B2E5B03031D0E2E0F2E1B2E5A08B1
:100C2000031D132E142E1B2E0330F4000030F5008C
:100C30008D319B25853120005D08031D202E212E3E
:100C4000372E5C08031D252E262E372E5B08031D2C
:100C50002A2E2B2E372E5A03031D2F2E302E372EE1
:100C60000430F4000030F5008D319B2585312000E3
:100C70005D03031D3C2E3D2EE32E5C03031D412E20
:100C8000422EE32E5B08031D462E472EE32E5A0804
:100C9000031D4B2E4C2EE32E2100C201C301DC01AB
:100CA000DC0AE32E023042064304031D582E592E5F
:100CB000E32E20005D03031D5E2E5F2E752E5C0863
:100CC000031D632E642E752E5B08031D682E692E8E
:100CD000752E5A08031D6D2E6E2E752E0130F400F0
:100CE0000030F5008C31E424853120005D08031DBF
:100CF0007A2E7B2E912E5C03031D7F2E802E912E4B
:100D00005B08031D842E852E912E5A08031D892E03
:100D10008A2E912E0230F4000030F5008C31E4244C
:100D2000853120005D08031D962E972EAD2E5C08A0
:100D3000031D9B2E9C2EAD2E5B03031DA02EA12E0A
:100D4000AD2E5A08031DA52EA62EAD2E0330F4009D
:100D50000030F5008C31E424853120005D08031D4E
:100D6000B22EB32EC92E5C08031DB72EB82EC92E85
:100D70005B08031DBC2EBD2EC92E5A03031DC12EB8
:100D8000C22EC92E0430F4000030F5008C31E4246A
:100D9000853120005D03031DCE2ECF2EE32E5C0394
:100DA000031DD32ED42EE32E5B08031DD82ED92E7F
:100DB000E32E5A08031DDD2EDE2EE32E2100C20194
:100DC000C301DB01DB0A08002000B4003408D63E72
:100DD000B4005E08B03EDE00210060080F39DF007D
:100DE00060082000AD000430AD36890BF42E2D08CC
:100DF000B3003308103E2100DE0020005E08210011
:100E0000EC005F08ED005E08EE00E9302000A8006D
:100E10000030A9000630AA000030AB003C3097310A
:100E2000072786312000B50135084D3E8600013088
:100E300087003408AD00AE012D08A0002E08A100E7
:100E40001830A2000030A3009531E1258631003032
:100E50002000AF009030B00020082F07B10021081B
:100E6000303DB20035083107840032080318320AD9
:100E70008500000881000130AD002D08B5070C3059
:100E80003502031C442F452F142F4C30A80001308D
:100E9000A9000D30AA000030AB003C309731072785
:100EA000863120005E08013EDE005E082100EC0075
:100EB000E9302000A8000030A9000630AA00003068
:100EC000AB003C309731072786310C302000B5004D
:100ED0003508413E8600013087003408AD00AE0180
:100EE0002D08A0002E08A1001830A2000030A30099
:100EF0009531E125863100302000AF009030B00000
:100F000020082F07B1002108303DB2003508310715
:100F1000840032080318320A85000008810001307D
:100F2000AD002D08B50718303502031C982F992FF6
:100F3000682F4C30A8000130A9000D30AA00003005
:100F4000AB003C3097310727863120005E084F3ECA
:100F5000DE00210060080C3EE00008002000A8012F
:100F6000210062082000A90032309731C82787315C
:100F700010302000A800210063082000A9003230B2
:100F80009731C827873120302000A800210064084D
:100F90002000A90032309731C82787313030200037
:100FA000A800210065082000A90032309731C82729
:100FB000873140302000A800210066082000A900E9
:100FC00032309731C827873150302000A8002100E7
:100FD00067082000A90032309731C8278731603078
:100FE0002000A800210068082000A90032309731B5
:100FF000C8278731080001309531A32587310800C3
:101000003B00AC01AD013030AE00AF01B001A20138
:10101000A1010830A4009730A3009C30A6003F3007
:10102000A500A8010330A700AA01A9018030AB00E8
:1010300008002000A501A601200821040319212889
:1010400022285128A701A70A2E280130A035A10D7A
:10105000890B26280130A4002408A707A11F3128E6
:10106000322825280130A535A60D890B3328210803
:101070002302031D3D2820082202031C402841288A
:1010800046282008A2022108A33B25140130A136DE
:10109000A00C890B47280130A702031D50285128B6
:1010A00032282608A1002508A000080022008C0193
:1010B0008D018E01083021009000DF308C00FF3060
:1010C0008D00FE308E00043023008E003E308D00F7
:1010D0003C308C00240090018D018C018E01210098
:1010E000971725008C018D018E01FF3026008C00A2
:1010F000FF308D00FF308E003F3027008C00F03035
:101100008D00FF308E001F303D00A00014303C00E9
:10111000BB0021303D00A3002230A4001E3095000A
:1011200013303C00BA00080044344D345934313493
:10113000003400340034003444344D3459343234F3
:1011400000340034003400344D3449344E345534C6
:10115000543445345334003448344F3455345234C5
:1011600000340034003400345734453445344B34B3
:1011700000340034003400344434413459340034F1
:1011800000340034003400344D344F344E34543481
:101190004834003400340034593445344134523436
:1011A00000340034003400349231A7228831F80032
:1011B0001730A03E86008701403F8400413F8500F4
:1011C0007808800001302100B7070030B83D0130B9
:1011D000B9020030BA3B39083A040319F028F12863
:1011E000F6289231CF22883105301429BD15002907
:1011F00093310323883114299231FE228831142936
:101200002C08F70021088A0020080A008931013AD9
:101210000319FC28033A0319F828013A0319F8289E
:10122000073A0319FC28FC2808002000B300330803
:10123000E03EB300B4013408633E8600013087000D
:101240003308AD00AE012D08A0002E08A100063025
:10125000A2000030A3009531E1258931E53020005E
:10126000AF008230B00020082F07B1002108303DC8
:10127000B20034083107840032080318320A8500AE
:10128000000881000130AD002D08B407063034029B
:10129000031C4B294C291B296230A8000130A900EE
:1012A0000730AA000030AB003C3097310727893166
:1012B00008002000A200A301A30A21003D19612912
:1012C00062299C29200022082100B600BD103D158E
:1012D0003D100E30BB00F430B4000130B500BD1538
:1012E0009C30A0001230A100AC019C30A200123052
:1012F000A300AD019C30A4001230A500AE019C30CB
:10130000A6001230A700AF010230A8000030A900EB
:10131000B001D3302000A0001230A10093314A2345
:1013200089319231B62289319331D5238931923175
:10133000C22289312000A301200023080800543470
:101340004F3450340034003400340034003400345E
:101350000034423454344D3400340034003400340A
:101360000034003400344C34003400340034003491
:10137000003400340034003400345234003400347B
:101380000034003400340034003400340034DD34E0
:101390009834D9349834CD349834C9349834E934F5
:1013A0009834D1349834E53498344D3400340034D2
:1013B000003448340034003400345334523456344A
:1013C00000344434493452340034003400340A3494
:1013D000003400343B340A3400343B3415340034D8
:1013E0001734043400340634113401341F340A3401
:1013F00001340C341834143463341E3400343B3458
:101400001234003417340034003401340034003412
:101410000134FC349834FE349834E1349834D534B3
:101420009834403400340034003400340034003444
:1014300000340034003400340034003400342034EC
:101440000034213400347F342234003407344034F3
:101450000034003400340034003400342000A6018D
:10146000A31F332A342A3B2AA209A309A20A03197B
:10147000A30AA601A60AA11F3E2A3F2A442AA009C0
:10148000A109A00A0319A10A200821040319492A65
:101490004A2A732AA501A50A562A0130A035A10DB2
:1014A000890B4E2A0130A4002408A507A11F592A40
:1014B0005A2A4D2A21082302031D602A20082202ED
:1014C000031C632A642A682A2008A2022108A33B7D
:1014D0000130A136A00C890B692A0130A502031D39
:1014E000722A732A5A2A26080319772A782A7D2A0B
:1014F000A209A309A20A0319A30A2308A10022082A
:10150000A0000800933112238A31003A0319892A76
:101510008A2AB02A972A9231E5228A31D62A923134
:10152000EA228A31D62A9231F4228A31D62A21003F
:101530002F08F7000630A03E86008701413F8A0051
:10154000403F0A008A31013A0319932A033A0319EA
:101550008B2A013A03198F2A073A0319932A932AEF
:1015600021003D103808F9003708F800B70A0319C0
:10157000B80A780886007908870001089231DB22D2
:101580008A3101302100B9020030BA3B39083A04EF
:10159000031DCB2ACC2AD12A0630FA000030FB00EA
:1015A000D52A0330FA000030FB007A08080020003A
:1015B000B301B40103302000A00033089431E224C9
:1015C0008A31203E86000130870001082000B100EA
:1015D000B2013108A9003208AA000A30AB0000307D
:1015E000AC009631DD268A3120002C082100C10094
:1015F00020002B082100C00020002A082100BF0085
:10160000200029082100BE0020003308E13E8600AA
:101610008701210040082000B1000330B135FF3EB2
:10162000031D0E2B313521003E07810001302000C3
:10163000B3070030B43D3408803AB1008030310245
:10164000031D242B08303302031C272B282BDA2AF6
:101650008731AE278A3108002000A601A11F312B57
:10166000322B392BA009A109A00A0319A10AA6014E
:10167000A60AA31F3C2B3D2B462BA209A309A20AB5
:101680000319A30A0130A4002408A606A701A80193
:101690002008210403194D2B4E2B7D2BA501A50AF3
:1016A0005A2B0130A035A10D890B522B0130A4001B
:1016B0002408A507A11F5D2B5E2B512B0130A735F8
:1016C000A80D890B5F2B21082302031D692B20081D
:1016D0002202031C6C2B6D2B722B2008A202210806
:1016E000A33B27140130A136A00C890B732B0130CA
:1016F000A502031D7C2B7D2B5E2B26080319812B55
:10170000822B872BA709A809A70A0319A80A28086A
:10171000A1002708A0000800220038082000B1001E
:10172000B2013108A9003208AA000A30AB0000302B
:10173000AC009631DD268B3120002C082100C10041
:1017400020002B082100C00020002A082100BF0033
:10175000200029082100BE0040082000B10003300D
:10176000B135FF3E031DB02B313521003E07D800B7
:1017700022003B082000B100B2013108A900320864
:10178000AA000A30AB000030AC009631DD268B3168
:1017900020002C082100C10020002B082100C000DF
:1017A00020002A082100BF00200029082100BE00D7
:1017B00040082000B1000330B135FF3E031DDC2B93
:1017C000313521003E07D70057082000AB0021002B
:1017D0005808973135278B312100DA01DA0A0800E1
:1017E0002000AD010430973164278B318C3020000C
:1017F000B7009830B800803196208B31E03020005F
:10180000A8002030A90032309731C8278B31210041
:10181000DA0122003E08031D0E2C0F2C1D2C41085E
:10182000031D132C142C1D2CC4302000A2000930E1
:10183000A300943191248B31552C3E08031D212C9B
:10184000222C302C4103031D262C272C302C6C30ED
:101850002000A2000730A300943191248B31552C35
:101860003E03031D342C352C432C4108031D392C19
:101870003A2C432CC4302000A2000930A30094313C
:10188000A5248B31552C3E03031D472C482C552C89
:101890004103031D4C2C4D2C552C6C302000A20014
:1018A0000730A3009431A5248B3108002000AD013E
:1018B0000130973164278C31ED302000B70098302B
:1018C000B800803196208C31C5302000B7009830A8
:1018D000B800210068082000D200D3015208B900E6
:1018E0005308BA00803196208C31C5302000B700F3
:1018F0009830B800210067082000D200D3015208B8
:10190000B9005308BA00803196208C31C1302000D4
:10191000B7009830B800210066082000D200D3013B
:101920005208B9005308BA00803196208C31B73084
:101930002000B7009830B80021006535C83E860009
:1019400001308700403F2000B900413FBA0080319C
:1019500096208C312000AD010230973164278C3104
:10196000B1302000B7009830B80021006408200092
:10197000D200D3015208B9005308BA008031962032
:101980008C31B1302000B7009830B80021006308D6
:101990002000D200D3015208B9005308BA008031A8
:1019A00096208C31BC302000B7009830B800210060
:1019B00062082000D200D3015208B9005308BA00CF
:1019C000803196208C310800872D20005908803AFC
:1019D000F60080307602031DEF2C03305802031806
:1019E000F22CF32CFB2C20005808013ED8000030CC
:1019F000593DD9009A2D03302000D8000030D9007D
:101A00009A2D20005908803AF60080307602031D96
:101A10000B2D01305802031C0E2D0F2D172D200009
:101A20005808FF3ED800FF30593DD9009A2D2000BC
:101A3000D801D9019A2D0330F000200058089431C4
:101A4000CD248C31383E8600013087000330F00011
:101A5000200058089431CD248C313A3E8400013066
:101A60008500000801020318362D372D9A2D03300A
:101A7000F000200058089431CD248C31383E860087
:101A8000013087000330F000200058089431CD2445
:101A90008C31383E8400013085000008013E810011
:101AA0009A2D0330F000200058089431CD248C3159
:101AB000393E8600013087000330F00020005808CE
:101AC0009431CD248C31383E8400013085000008EB
:101AD000010203186C2D6D2D9A2D0330F0002000AB
:101AE00058089431CD248C31383E8600013087006F
:101AF0000330F000200058089431CD248C31383E5A
:101B00008400013085000008FF3E81009A2D750891
:101B1000003A03198C2D9A2D7408013A0319E52C0B
:101B2000033A0319012D013A03191B2D073A031932
:101B3000512D9A2D0800402E20005908803AF600B9
:101B400080307602031DA62D073058020318A92DF8
:101B5000AA2DB22D20005808013ED8000030593D72
:101B6000D900532E07302000D8000030D900532E62
:101B700020005908803AF60080307602031DC22DFD
:101B800003305802031CC52DC62DCE2D2000580849
:101B9000FF3ED800FF30593DD900532E02302000BF
:101BA000D8000030D900532E0330F0002000580830
:101BB0009431CD248D31203E8600013087000330E2
:101BC000F000200058089431CD248D31223E84004D
:101BD00001308500000801020318EF2DF02D532E6F
:101BE0000330F000200058089431CD248D31203E80
:101BF0008600013087000330F0002000580894313F
:101C0000CD248D31203E8400013085000008013E46
:101C10008100532E0330F000200058089431CD2469
:101C20008D31213E8600013087000330F000200016
:101C300058089431CD248D31203E84000130850038
:101C4000000801020318252E262E532E0330F00023
:101C5000200058089431CD248D31203E860001307B
:101C600087000330F000200058089431CD248D31D6
:101C7000203E8400013085000008FF3E8100532E85
:101C80007508003A0319452E532E7408013A0319BA
:101C90009C2D033A0319B82D013A0319D42D073AA4
:101CA00003190A2E532E08009431F8248E31073080
:101CB0002000A0000530A10093316E238E318B17D8
:101CC0000B179331E2238E31963101268E31873105
:101CD000AE278E3195313D258E31963101268E31DC
:101CE0008C3156248E312100C201C301DC01220057
:101CF000EB01EC012100DA012000DD01DC01DB0158
:101D0000DA0195313D258E318C3156248E312000FB
:101D1000AD010530973164278E3180302000B70047
:101D20009130B800803196208E3120008C18992E89
:101D30009A2EA92EDD01DD0AAD0105309731642709
:101D40008E31F0302000B7009830B80080319620F6
:101D50008E3120000C18AD2EAE2EBE2EDC01DC0A1A
:101D60000F30AD000530973164278E31F3302000FD
:101D7000B7009830B800803196208E3120000E1BBD
:101D8000C22EC32ED32EDB01DB0A1E30AD00053080
:101D9000973164278E31F6302000B7009830B800B4
:101DA000803196208E3120008E1AD72ED82EE82E24
:101DB000DA01DA0A2D30AD000530973164278E3113
:101DC000F9302000B7009830B800803196208E316D
:101DD00020000D1CEC2EEE2E0130EF2E0030D40032
:101DE00021005A030319F52EF72E0130F82E00308A
:101DF0002000540500380319FE2EFF2E022F8B31D0
:101E0000F0238E31210042034304031D082F092FC4
:101E1000482F2000AD010330973164278E316C309C
:101E20002000B7009830B800803196208E31200015
:101E3000AD010630973164278E3141302000B70064
:101E40009830B8005908BA005808B9005808D400AA
:101E50000230D435FF3E031D292F5435203EBB00F0
:101E60000230BC000330A00058089431E2248E31C7
:101E7000203E86000130870001082000D500D601F1
:101E80005508BD005608BE00803196208E31C12F06
:101E9000023042064304031D4E2F4F2F8E2F200089
:101EA000AD010330973164278E317C302000B700BC
:101EB0009830B800803196208E312000AD01063078
:101EC000973164278E3141302000B7009830B80038
:101ED0005908BA005808B9005808D4000130D43560
:101EE000FF3E031D6F2F5435D63EBB000130BC00B2
:101EF0000330A00058089431E2248E31383E860029
:101F00000130870001082000D500D6015508BD002A
:101F10005608BE00803196208E31C12F2000AD01C1
:101F20000330973164278E31AD302000B7009130F7
:101F3000B800803196208E312000AD0106309731F7
:101F400064278E31AD302000B7009130B800803169
:101F500096208E3121005C03031DAF2FB02FB62FCA
:101F60008A31D7228E312100DC01C12F5B03031D92
:101F7000BA2FBB2FC12F8B318C238E312100DB0177
:101F8000C12F21005A03031DC62FC72F7C2E20000E
:101F9000AD010730973164278E3100302000B70043
:101FA0009830B80022003B082000D400D501540826
:101FB000B9005508BA00220038082000D600D70121
:101FC0005608BB005708BC0022003E35483E86003C
:101FD00001308700403F2000BD00413FBE0022008D
:101FE0004135443E860001308700403F2000BF005D
:101FF000413FC000803196208E317C2E80313628C2
:102000000034003400340034003400340034003430
:102010000034003400340034003400340034003420
:102020000034003400340034003400340034003410
:102030000034003400340034003400340034003400
:1020400000340034003400340034003400340034F0
:102050001C341C341C34003400340034003400348C
:102060000034FC34FC348034803480348034803458
:102070008034FC34FC34003400343F343F340134C9
:10208000013401340134013401343F343F3400342D
:102090000034FC34FC347834E034C034C034E034F0
:1020A0007834FC34FC34003400343F343F340034A2
:1020B000003401340134003400343F343F34003400
:1020C0000034FC34FC3400348034C03460343034A8
:1020D000103400340034003400343F343F340334CF
:1020E000033406340C3418343034203400340034D3
:1020F0000034303430343034303430343034F03430
:1021000070343034003400340034303438343C34EB
:1021100036343334313430343034303400340034F5
:102120000034F034F8340C340C340C340C340C34EB
:102130000C34F834F034003400340F341F343034AD
:10214000303430343034303430341F340F340034D1
:1021500000340034003400340C34FC34FC340034DB
:1021600000340034003400340034003400340034CF
:1021700030343F343F3430340034003400340034E1
:102180000034303438340C340C340C348C348C340B
:10219000CC34F83470340034003438343C343E34B9
:1021A0003734333431343134303430343034003433
:1021B000003418341C340C348C348C348C348C340F
:1021C000CC34F834703400340034183438343034BB
:1021D000313431343134313433341F340E3400343B
:1021E0000034003400348034C03460343034183467
:1021F000FC34FC340034003400340E340F340D341D
:102200000C340C340C340C343F343F340C34003474
:102210000034FC34FC34CC34CC34CC34CC34CC342A
:10222000CC348C340C34003400341834383430342A
:10223000303430343034303430341F340F340034E0
:102240000034F034F8349C348C348C348C348C343A
:102250008C3418341834003400340F341F343134C3
:10226000313431343134313431341F340E340034AC
:1022700000340C340C340C340C340C348C34CC342A
:102280007C343C340C3400340034003400340034EA
:1022900000343E343F340134003400340034003420
:1022A00000347034F83488348C348C348C348C346E
:1022B0008834F8347034003400340E341F34113450
:1022C000313431343134313411341F340E3400346C
:1022D00000347834FC348C348C348C348C348C342E
:1022E0008C34F834F0340034003400343034313479
:1022F000313431343134313439341F340F34003413
:10230000203420342034203420342034203420342D
:10231000203420342034203420342034203420341D
:10232000203420342034203420342034203420340D
:1023300020342034203420342034203420342034FD
:1023400020342034203420342034203420342034ED
:1023500020342034203420342034203420342034DD
:1023600020342034203420342034203420342034CD
:0C23700020342034203420342034003489
:10253600080001300800240096140800240016152F
:102546000800240096150800240011080800200041
:10255600911508002000911108003B00BF170800E4
:102566003B00AF17080020009111080024009512C7
:10257600080021009111080024001614080021000B
:10258600911508003B00BF1708003B00AF17080075
:102596002400961616160800240096121616080031
:1025A6009631B526923108001630210099000800B0
:1025B600F00070082400910008002100BD10BC0145
:1025C6000E30080092319E2292310130080092317D
:1025D6009E2292310230080092319E2292310130C1
:1025E60008009231A1229231003008009231CF22A8
:1025F6009231053008009231CB2292310A30080020
:102606009231CB229331093008002100BD10BC0164
:102616000E30080000309531A325933108002400C0
:10262600160E890C890C0139080071083B00B400AC
:102636007008B300080071083B00A4007008A300EE
:102646000800200091109331C8239331080021001F
:102656003D109231A42293310430080021003D142C
:1026660036359231DB229331033008007830210071
:102676009B0080309C009A019D01080021003D14BA
:102686000314360D9231DB22933105300800200009
:1026960021082100D500200020082100D4000800D0
:1026A600200021083B00B400200020083B00B300B6
:1026B6000800200021083B00A400200020083B0061
:1026C600A3000800240094010830950096012730E5
:1026D600920095120800200021082200EE0020003A
:1026E60020082200ED0008007508F1007408F000CB
:1026F6007608F20000309631472693310800200014
:10270600AB00C030A8002B08A9003C309731C82781
:10271600933108002000AB008030A8002B08A900E8
:102726003C309731C8279331080020002508A100C6
:102736002408A0002608A200023096319026933184
:10274600080020002508A1002408A0002608A200F1
:1027560000309631902693310800640080010131E3
:102766000130FE020030FF3B7F087E04031DB12BC3
:102776000034FE0012001E000130FE020030FF3B56
:102786007F087E04031DBD2B003422006D086E04F5
:102796000319CE2BCF2BD42B6E088A006D080A00A6
:1027A600933108002400951AD92BDA2BE12B9401DA
:1027B60008309500960127309200951608008D3056
:1027C60093318D239331143093318D239331AF3070
:1027D60093318D2393310800003430345934183442
:1027E6000434173410342434003420340234B03422
:1027F600003400342100BD1D012C022C0B2C710865
:10280600B8007008B7007308BA007208B900BD11A5
:1028160008007708F000F1010230F2000030F30002
:102826009331FD2394310030F400F500F601933125
:1028360077239431043008007708F000F101013065
:10284600F2000030F3009331FD2394310030F400A0
:10285600F500F601933177239431023008007708AA
:10286600F000F1010230F2000030F3009331FD2355
:1028760094310030F400F500F6019331772394315A
:10288600023008007708F000F1010130F200003054
:10289600F3009331FD2394310030F400F500F60186
:1028A600933177239431043008007308F1007208DD
:1028B600F0009331182394319231B02294314E3086
:1028C600F400EB30890B652CF40B652C0000080036
:1028D6007308F1007208F00093311E23943192318F
:1028E600B32294314E30F400EB30890B782CF40B84
:1028F600782C000008002000A100A0013A30210237
:102906000318862C872C8F2C30302102031C8C2C2C
:102916008D2C8F2CA001A00A200C08002000230873
:10292600A1002208A0009331532394319231C5228D
:1029360094314E302000A400EB30890BA02CA40B60
:10294600A02C080020002308A1002208A000933133
:102956005C2394319231C82294314E302000A40079
:10296600EB30890BB42CA40BB42C08002000B60065
:1029760021005D080319C02CC12CC72C2000360885
:102986008631E4269431CC2C200036088931152175
:1029960094310800F300F201731CD22CD32CD72CEF
:1029A6007008F1007108F2070310F00D0310F30C24
:1029B6007308031DDF2CE02CCF2C720808002000C2
:1029C600A300A201231CE82CE92CED2C2008A10071
:1029D6002108A2070310A00D0310A30C2308031D52
:1029E600F52CF62CE52C220808009331652394314A
:1029F6008831562094319331392394319231D7223C
:102A06009431883100209431953155259431953192
:102A16002525943108002100BD1D122D132D242DCE
:102A2600200021082100B800200020082100B7005E
:102A3600200023082100BA00200022082100B90046
:102A4600BD11080001302900970096019801C23097
:102A56009400930120009110210091149B302000D6
:102A6600A0001230A10093316E239531FF3029006A
:102A76009500080000302000A800A9000130AA0037
:102A86000030AB003230973107279531E130200016
:102A9600A4000730A5000030A60032309631242667
:102AA600953108003B00BC01BD013030BE00BF01BE
:102AB600C001B201B1010830B4009730B3009C30B8
:102AC600B6003F30B500B8010330B700BA01B9010E
:102AD6008030BB0008007708023E860087010108A7
:102AE600F000F101770886008701403FF200413F80
:102AF600F3009331FD2395310030F400F500F60123
:102B0600933177239531023008002000A001A00AF6
:102B16002100BD188F2D902DA02D3D11FF30B60040
:102B26009231B62295319231BC2295319231B92239
:102B3600953121003C082000A00020002008080054
:102B46002000A000A101A10A2100BD18AB2DAC2DCB
:102B5600BE2DBD142000A10120080319B32DB42DEC
:102B6600B82D2100BB01BB0ABB2D02302100BB00E2
:102B76009231BF22953120002108080021003D1026
:102B86000230BC00CE2D9231EF229531E02D9231EC
:102B9600F4229531E02D2E08F7000430A03E860081
:102BA6008701413F8A00403F0A009531023A0319E6
:102BB600C62D013A0319C62DCA2D08002000A4010E
:102BC600A501201CE72DE82DEC2D2208A4072308DB
:102BD600A53D0130A235A30D890BED2D0130A1369F
:102BE600A00C890BF22D20082104031DFB2DFC2DC2
:102BF600E42D2508A1002408A00008005930200073
:102C0600A8000130A9000930AA000030AB003C3012
:102C16009731072796312000AD01AE010030933180
:102C26008223963101302000AD070030AE3D0430DE
:102C36002E02003003192D02031C222E232E112EE4
:102C460008002000A7002000270889315921963165
:102C5600003A03192F2E302E262E20002408A0001D
:102C6600A1012608A3002508A20095310E2596315C
:102C76008731FB279631953188259631013A03191C
:102C8600452E462E3E2E0800F300700871040319E7
:102C96004D2E4E2E5D2E7335A03E860087017008A0
:102CA600C03F7108C13F7308AC3E860087017208B9
:102CB60081006A2E7335A03E860087019C30C03F96
:102CC6001230C13F7308AC3E8600870181010800BF
:102CD6002100BD157B2E9231EF2296318F2E923137
:102CE600AA22963103308F2E9231F42296318F2EFE
:102CF6002C08F70021088A0020080A009631013ABC
:102D06000319772E033A03196E2E013A03196E2E14
:102D1600073A0319722E772E08002000A300200818
:102D260021040319972E982EA72E2335A03E860040
:102D360087012008C03F2108C13F2308AC3E86001A
:102D4600870122088100B42E2335A03E8600870124
:102D56009C30C03F1230C13F2308AC3E860087013D
:102D6600810108009231AD22963121003D1CBC2E16
:102D7600BD2EC82E933112239631003A0319C42E64
:102D8600C52EC82E0F302100BB0021003B08FC00D9
:102D9600FD01FC35FD0D21307C07840018307D3D9A
:102DA60080388500013F8A00003F0A0096312100E5
:102DB600BB00080020002C08A1002B08A0002A0850
:102DC600A3002908A2008B312C239631200021086C
:102DD600B0002008AF002C08A1002B08A0002A088C
:102DE600A3002908A2008A312E229631200021084C
:102DF600AE002008AD003008AC002F08AB002E084E
:102E0600AA002D08A90008002000AC0020002C080C
:102E1600893159219731003A0319122F132F092F9F
:102E260020002908A1002808A0002B08A3002A08D2
:102E3600A20095310E25973100302000A400A50090
:102E46000030A600A70093319823973193310D23C4
:102E56009731953188259731013A0319332F342F4D
:102E66002C2F08002000AC00E030A8002030A9007C
:102E760032309731C8279731B0302000A8002C088F
:102E8600A90032309731C8279731C0302000A800FA
:102E96002B08A90032309731C8279731F03020002F
:102EA600A800A901A90A32309731C8279731E03026
:102EB6002000A8006030A90032309731C82797312A
:102EC60008002000AF002100DD0120002F08DE00F1
:102ED6002D082100E00020002F08B03E2100EC0064
:102EE60020002D080F392100ED0020002D08AE002E
:102EF6000430AE36890B7C2F2E08AD002D08103E0F
:102F06002100EE00E9302000A8000030A9000630BC
:102F1600AA000030AB003C309731072797310800F4
:102F26002000280829040319992F9A2FC32FAD01D1
:102F3600AD0AA62F0130A835A90D890B9E2F0130A9
:102F4600AC002C08AD07A91FA92FAA2F9D2F290871
:102F56002B02031DB02F28082A02031CB32FB42FFF
:102F6600B82F2808AA022908AB3B0130A936A80CBD
:102F7600890BB92F0130AD02031DC22FC32FAA2F13
:102F86002B08A9002A08A80008002000AA00200093
:102F96002A08893159219731003A0319D32FD42FA2
:102FA600CA2F45302000A4001430A5002930A60001
:102FB6009331A423973128302000A0000030A100CF
:102FC6000130A2000030A30095310E259731003064
:102FD6002000A400A5000030A600A7009331982386
:102FE600973193310D239731953188259731013AE1
:102FF6000319FE2FFF2FF72F080025343034323403
:1030060064343A3425343034323464342034203451
:10301600203425347334203425347334203420345A
:1030260020342034203420342034203420342034FA
:10303600203420342034203420340034E034123458
:10304600413413343134133482340A34D4340834DA
:103056002A3413346B341634E5341234EA34123419
:10306600EF341234F4341234F9341234FE34123498
:103076000334133408341334C1341534253464341A
:103086003A3420342534733420343A3425346434C5
:10309600203420342034203420342034203420348A
:1030A600203420342034203420342034203400349A
:1030B60030343134323433343434353436343734CE
:1030C6003834393461346234633464346534663494
:1030D600003443344C344F3443344B34203441347D
:1030E60044344A3420344D344F3444344534203447
:1030F600003441344C34413452344D34203453344A
:103106004534543420344D344F344434453420341B
:1031160000344D344F34563445342034533445341A
:10312600523456344F3420340034013400340A34D7
:10313600003464340034E834033410342734013462
:103146000034103400340034013400341034283490
:103156006E3475346C346C34293400342534303490
:10316600323478343A3400342834253473342934EC
:10317600003425343034323478340034253478340D
:1031860020340034253478342F3400345734453411
:1031960044340034543455344534003446345234BF
:1031A60049340034423454344D3400344D344F34B1
:1031B6004E340034533455344E34003454344F3482
:1031C6005034003453344134543400345434483485
:1031D6005534003432343034003441344134003410
:1031E60042344234003443344334003444344434A7
:0A31F60000344C340034523400342D
:020000040001F9
:08000000FF3FFF3FFF3FFF3F00
:04000E00E43FFF3E8E
:00000001FF
